:100000000C9434000C9446000C9446000C9446006A
:100010000C9446000C9446000C9446000C94460048
:100020000C9446000C9446000C9446000C94460038
:100030000C9446000C9446000C9446000C94460028
:100040000C9455000C9446000C9446000C94460009
:100050000C9446000C9446000C9446000C94460008
:100060000C9446000C94460011241FBECFEFD8E03C
:10007000DEBFCDBF21E0A0E0B1E001C01D92A03005
:10008000B207E1F70E9448000C945F000C94000056
:1000900080E48AB984BD8BE084BD8FE787BD81E0B1
:1000A00080936E00789485BDFFCF1F920F920FB69C
:1000B0000F9211240F900FBE0F901F901895F89477
:0200C000FFCF70
:00000001FF
